:100000000C942A000C94EC000C94B0010C94470062
:100010000C9447000C9447000C9447000C94EF0795
:100020000C9447000C9447000C9447000C94470034
:100030000C9447000C9447000C9447000C94470024
:100040000C940B020C9447000C9447000C9447004E
:100050000C94470011241FBECFE5D8E0DEBFCDBF12
:1000600010E0A0E6B0E0E6E3F0E102C005900D92FA
:10007000AA36B107D9F710E0AAE6B0E001C01D9298
:10008000AA37B107E1F70E94CE000C9419080C942E
:100090000000DF93CF9300D000D000D0CDB7DEB703
:1000A0009E838D83F8948D819E81009741F12FEF7F
:1000B0003FEF40E050E029833A834B835C838981A2
:1000C0009A81AB81BC81BB238CF089819A81AB8101
:1000D000BC810197A109B10989839A83AB83BC8351
:1000E00089819A81AB81BC81BB237CF78D819E8104
:1000F00001979E838D838D819E810097E1F62696E0
:100100000FB6F894DEBF0FBECDBFCF91DF9108953B
:10011000DF93CF9300D0CDB7DEB79C01220F331F02
:10012000220F331F280F391F8FEF80936B0010921F
:100130006C0010926D001A82198289819A812817A9
:10014000390738F180916B00882359F080916B005A
:10015000815080936B0080916C008F5F80936C0066
:100160000EC080916C00882351F080916C0081500A
:1001700080936C0080916D008F5F80936D0089810A
:100180009A8101969A83898389819A8128173907F0
:10019000C8F60F900F90CF91DF9108958DE08EBD3E
:1001A00083E89EE19BBD8ABD83E087B980E187BB80
:1001B00081E081BB8DE182BB86E085BF80EC8BBF97
:1001C0008FEF80936C0080936B0080936D0082E2D0
:1001D000809372007894FECF1F920F920FB60F9209
:1001E00011242F933F934F935F936F937F938F933C
:1001F0009F93AF93BF93CF93DF93EF93FF9360E011
:1002000070E081E090E00E944900809179008F5F6A
:100210008093790080917900813011F48FEE86B956
:1002200080917900823031F416B88091720090E0AC
:100230000E94400780917900833021F480E189BFDA
:100240008FEE86B980917900843009F076C019BEAE
:1002500016B8C8EED6E080E090E060E070E040E0E4
:1002600050E0FE01099580E090E060E070E040E041
:1002700050E0FE01099580E090E060E070E040E031
:1002800050E0FE01099580E090E060E070E040E021
:1002900050E0FE01099580E090E060E070E040E011
:1002A00050E0FE01099580E090E060E070E040E001
:1002B00050E0FE01099580E090E060E070E040E0F1
:1002C00050E0FE01099580E090E060E070E040E0E1
:1002D00050E0FE01099580E090E060E070E040E0D1
:1002E00050E0FE01099580E090E060E070E040E0C1
:1002F00050E0FE01099580E090E060E070E040E0B1
:1003000050E0FE01099580E090E060E070E040E0A0
:1003100050E0FE01099580E090E060E070E040E090
:1003200050E0FE01099580E090E060E070E040E080
:1003300050E0FE01099510927900FF91EF91DF9155
:10034000CF91BF91AF919F918F917F916F915F916D
:100350004F913F912F910F900FBE0F901F901895C6
:100360001F920F920FB60F9211242F933F934F932A
:100370005F936F937F938F939F93AF93BF93EF930D
:10038000FF93DF93CF9300D0CDB7DEB78091790094
:10039000823061F580B390E080719070959587957B
:1003A000898380B388708A8316B899818A81981767
:1003B00061F4809172008F5F80937200809172006F
:1003C000833679F4109272000CC0809172008150D3
:1003D0008093720080917200882319F483E68093E1
:1003E00072008091720090E00E9440070F900F9081
:1003F000CF91DF91FF91EF91BF91AF919F918F913D
:100400007F916F915F914F913F912F910F900FBE10
:100410000F901F9018951F920F920FB60F921124F4
:100420002F933F934F935F936F937F938F939F93FC
:10043000AF93BF93EF93FF93DF93CF93CDB7DEB727
:10044000CA54D140DEBFCDBFFE0131968CEDDF0135
:100450001D928A95E9F781E092E09A8389838CE086
:1004600092E09C838B8387E192E09E838D8382E27E
:1004700092E098878F838DE292E09A87898787E35D
:1004800092E09C878B8782E492E09E878D878CE444
:1004900092E0988B8F8786E592E09A8B898B80E635
:1004A00092E09C8B8B8B8AE692E09E8B8D8B8BE609
:1004B00092E0988F8F8B8FE692E09A8F898F86E7F4
:1004C00092E09C8F8B8F8FE792E09E8F8D8F8AE8D2
:1004D00092E098A38F8F85E992E09AA389A381EA9D
:1004E00092E09CA38BA38DEA92E09EA38DA388EB60
:1004F00092E098A78FA384EC92E09AA789A78FEC4B
:1005000092E09CA78BA789ED92E09EA78DA784EE31
:1005100092E098AB8FA78DEE92E09AAB89AB86EF15
:1005200092E09CAB8BAB8FEF92E09EAB8DAB87E004
:1005300093E098AF8FAB8FE093E09AAF89AF86E1FD
:1005400093E09CAF8BAF8DE193E09EAF8DAFFE014A
:10055000FF9684E293E0918380838AE293E0FE0138
:10056000EF5BFF4F9183808381E393E0FE01ED5BBE
:10057000FF4F9183808387E393E0FE01EB5BFF4FA6
:10058000918380838CE393E0FE01E95BFF4F9183CD
:10059000808382E493E0FE01E75BFF4F91838083D9
:1005A00088E493E0FE01E55BFF4F918380838DE457
:1005B00093E0FE01E35BFF4F9183808382E593E04C
:1005C000FE01E15BFF4F9183808387E593E0FE01AD
:1005D000EF5AFF4F918380838CE593E0FE01ED5A43
:1005E000FF4F9183808381E693E0FE01EB5AFF4F3A
:1005F0009183808386E693E0FE01E95AFF4F918361
:1006000080838BE693E0FE01E75AFF4F918380835E
:100610008FE693E0FE01E55AFF4F9183808384E7E4
:1006200093E0FE01E35AFF4F9183808388E793E0D4
:10063000FE01E15AFF4F918380838CE793E0FE0136
:10064000EF59FF4F9183808380E893E0FE01ED59DD
:10065000FF4F9183808384E893E0FE01EB59FF4FC5
:100660009183808388E893E0FE01E959FF4F9183ED
:1006700080838CE893E0FE01E759FF4F91838083EC
:1006800080E993E0FE01E559FF4F9183808384E97F
:1006900093E0FE01E359FF4F9183808387E993E064
:1006A000FE01E159FF4F918380838BE993E0FE01C6
:1006B000EF58FF4F918380838EE993E0FE01ED5860
:1006C000FF4F9183808382EA93E0FE01EB58FF4F56
:1006D0009183808385EA93E0FE01E958FF4F91837F
:1006E000808389EA93E0FE01E758FF4F918380837E
:1006F0008AEA93E0FE01E558FF4F918380838CEAFC
:1007000093E0FE01E358FF4F918380838EEA93E0EC
:10071000FE01E158FF4F9183808380EB93E0FE015F
:10072000EF57FF4F9183808383EB93E0FE01ED57FA
:10073000FF4F9183808385EB93E0FE01EB57FF4FE2
:100740009183808388EB93E0FE01E957FF4F91830B
:1007500080838AEB93E0FE01E757FF4F918380830C
:100760008CEB93E0FE01E557FF4F918380838FEB85
:1007700093E0FE01E357FF4F9183808381EC93E088
:10078000FE01E157FF4F9183808383EC93E0FE01EC
:10079000EF56FF4F9183808385EC93E0FE01ED5689
:1007A000FF4F9183808387EC93E0FE01EB56FF4F70
:1007B0009183808389EC93E0FE01E956FF4F91839A
:1007C00080838BEC93E0FE01E756FF4F918380839B
:1007D0008CEC93E0FE01E556FF4F918380838EEC15
:1007E00093E0FE01E356FF4F918380838FEC93E00B
:1007F000FE01E156FF4F9183808381ED93E0FE017E
:10080000EF55FF4F9183808382ED93E0FE01ED551C
:10081000FF4F9183808383ED93E0FE01EB55FF4F03
:100820009183808385ED93E0FE01E955FF4F91832D
:10083000808386ED93E0FE01E755FF4F918380832F
:1008400087ED93E0FE01E555FF4F9183808388EDAE
:1008500093E0FE01E355FF4F9183808389ED93E0A0
:10086000FE01E155FF4F918380838AED93E0FE0105
:10087000EF54FF4F918380838BED93E0FE01ED54A5
:10088000FF4F918380838CED93E0FE01EB54FF4F8B
:10089000918380838EED93E0FE01E954FF4F9183B5
:1008A00080838FED93E0FE01E754FF4F91838083B7
:1008B00080EE93E0FE01E554FF4F9183808381EE4B
:1008C00093E0FE01E354FF4F9183808382EE93E037
:1008D000FE01E154FF4F9183808383EE93E0FE019C
:1008E000EF53FF4F9183808384EE93E0FE01ED533D
:1008F000FF4F9183808385EE93E0FE01EB53FF4F22
:100900009183808386EE93E0FE01E953FF4F91834C
:10091000808387EE93E0FE01E753FF4F918380834E
:1009200088EE93E0FE01E553FF4F9183808389EECB
:1009300093E0FE01E353FF4F918380838AEE93E0BF
:10094000FE01E153FF4F91838083FE01E352FF4F8D
:100950008EE6DF011D928A95E9F781E0818382E0CE
:10096000828383E0838384E0848385E0858386E0DB
:10097000868387E0878388E0808789E081878AE0B3
:1009800082878BE083878CE084878DE085878EE08B
:1009900086878FE0878780E1808B81E1818B82E190
:1009A000828B83E1838B84E1848B85E1858B86E177
:1009B000868B87E1878B88E1808F89E1818F8AE14F
:1009C000828F8BE1838F8CE1848F8DE1858F8EE127
:1009D000868F8FE1878F80E280A381E281A382E20C
:1009E00082A383E283A384E284A385E285A386E2D3
:1009F00086A387E287A388E280A789E281A78AE2AB
:100A000082A78BE283A78CE284A78DE285A78EE282
:100A100086A78FE287A780E380AB81E381AB82E387
:100A200082AB83E383AB84E384AB85E385AB86E36E
:100A300086AB87E387AB88E380AF89E381AF8AE346
:100A400082AF8BE383AF8CE384AF8DE385AF8EE31E
:100A500086AF8FE387AF80E4FE01E35EFE4F8083C5
:100A600081E4FE01E25EFE4F808382E4FE01E15EEE
:100A7000FE4F808383E4FE01E05EFE4F808384E4CA
:100A8000FE01EF5DFE4F808385E4FE01EE5DFE4FCB
:100A9000808386E4FE01ED5DFE4F808387E4FE01E6
:100AA000EC5DFE4F808388E4FE01EB5DFE4F8083AA
:100AB00089E4FE01EA5DFE4F80838AE4FE01E95D80
:100AC000FE4F80838BE4FE01E85DFE4F80838CE463
:100AD000FE01E75DFE4F80838DE4FE01E65DFE4F83
:100AE00080838EE4FE01E55DFE4F80838FE4FE018E
:100AF000E45DFE4F808380E5FE01E35DFE4F808371
:100B000081E5FE01E25DFE4F808382E5FE01E15D4D
:100B1000FE4F808383E5FE01E05DFE4F808384E528
:100B2000FE01EF5CFE4F808385E5FE01EE5CFE4F2B
:100B3000808386E5FE01ED5CFE4F808387E5FE0144
:100B4000EC5CFE4F808388E5FE01EB5CFE4F80830A
:100B500089E5FE01EA5CFE4F80838AE5FE01E95CDF
:100B6000FE4F80838BE5FE01E85CFE4F80838CE5C1
:100B7000FE01E75CFE4F80838DE5FE01E65CFE4FE3
:100B800080838EE5FE01E55CFE4F80838FE5FE01EC
:100B9000E45CFE4F808380E6FE01E35CFE4F8083D1
:100BA00081E6FE01E25CFE4F808382E6FE01E15CAD
:100BB000FE4F808383E6FE01E05CFE4F808384E687
:100BC000FE01EF5BFE4F808385E6FE01EE5BFE4F8C
:100BD000808386E6FE01ED5BFE4F8083809173008B
:100BE000909174000196909374008093730010921A
:100BF000780010927700109276001092750084B100
:100C000095B120916E0030916F004091700050912D
:100C10007100A0E0B0E0820F931FA41FB51F809366
:100C20006E0090936F00A0937000B093710080915C
:100C3000730090917400B4E080309B0709F07FC08E
:100C400080916E0090916F00A0917000B091710042
:100C5000072E7AE0B695A795979587957A95D1F75F
:100C6000702D80936E0090936F00A0937000B093EE
:100C70007100209175003091760080916E00909106
:100C80006F00A0917000B091710040E050E08217B9
:100C90009307A407B50768F1BE016F5F7F4F80918E
:100CA0007700909178000196909378008093770078
:100CB000E0917700F0917800EE0FFF1FE60FF71F2D
:100CC00080819181909376008093750020917500CA
:100CD0003091760080916E0090916F00A09170002D
:100CE000B091710040E050E082179307A407B50768
:100CF000B0F68091770090917800FE01E352FF4FAB
:100D0000E80FF91F808190E0909376008093750042
:100D100020917200809175009091760030E0281744
:100D2000390719F485E080936A00809175009091ED
:100D300076000E9440071092740010927300C65B08
:100D4000DE4FDEBFCDBFCF91DF91FF91EF91BF911D
:100D5000AF919F918F917F916F915F914F913F9153
:100D60002F910F900FBE0F901F90189580E188BBB8
:100D700088BB88BB88BB88BB88BB18BA18BA18BAAE
:100D800018BA18BA18BA18BA18BA18BA18BA18BAD3
:100D900018BA18BA18BA80E090E0089580E188BBCC
:100DA00088BB88BB88BB88BB88BB88BB88BB88BB2B
:100DB00088BB88BB88BB88BB88BB18BA18BA18BA6E
:100DC00018BA18BA18BA18BA18BA80E090E008959C
:100DD000DF93CF9300D000D0CDB7DEB78A836B838B
:100DE0004C83198289818830A0F48FB78E7F8FBFA2
:100DF0008A81880F8A830FB600FE03C00E94CE0648
:100E000002C00E94B60689818F5F898389818830FC
:100E100060F3198289818830A0F48FB78E7F8FBFED
:100E20008B81880F8B830FB600FE03C00E94CE0615
:100E300002C00E94B60689818F5F898389818830CC
:100E400060F3198289818830A0F48FB78E7F8FBFBD
:100E50008C81880F8C830FB600FE03C00E94CE06E3
:100E600002C00E94B60689818F5F8983898188309C
:100E700060F30F900F900F900F90CF91DF91089536
:100E8000DF93CF93CDB7DEB763970FB6F894DEBF8D
:100E90000FBECDBF8B8B1A8219821C821B828B895D
:100EA0006AE00E940D0890E09A8389836B898981AA
:100EB0009A81AC01440F551F9C01220F331F220F52
:100EC000331F220F331F240F351F862F90E0821B04
:100ED000930B9C838B8389819A8182959295907FD5
:100EE0009827807F98279A83898389819A812B818B
:100EF0003C81820F8B8BDE011596E0E6F0E08AE004
:100F000001900D928150E1F78B8990E00E9488005A
:100F10008B89898B8B898295807F888B8889829544
:100F20008F70888B898982958F70898B8989FE0162
:100F30003596E80FF11D80818A8B1F868F8587305B
:100F4000E8F48FB78E7F8FBF8A89880F8A8B0FB6A0
:100F500000FE09C080916C0060916D0040916B00B3
:100F60000E94E80605C080E060E040E00E94E806DC
:100F70008F858F5F8F878F85873018F38889FE0173
:100F80003596E80FF11D80818A8B1F868F8587300B
:100F9000E8F48FB78E7F8FBF8A89880F8A8B0FB650
:100FA00000FE09C080916C0060916D0040916B0063
:100FB0000E94E80605C080E060E040E00E94E8068C
:100FC0008F858F5F8F878F85873018F363960FB675
:100FD000F894DEBF0FBECDBFCF91DF9108951F9271
:100FE0000F920FB60F9211248F939F9380916A00F6
:100FF000882319F48DE182BB09C092B381E089276F
:1010000082BB80916A00815080936A009F918F918A
:101010000F900FBE0F901F901895991B79E004C098
:10102000991F961708F0961B881F7A95C9F7809527
:061030000895F894FFCFC3
:0A103600FC18B63E5A6EEE38FE7E3E
:00000001FF
